:020000041A00E0
:10000000008000108109001A7901001A7B01001A92
:100010007D01001A7F01001A8101001A0E6FFF5343
:100020000000000000000000000000008301001A32
:100030008501001A000000008701001A911A001AB9
:10004000BB01001ABB01001ABB01001A000000002E
:10005000BB01001ABB01001ABB01001ABB01001A48
:10006000BD1A001ABB01001ABB01001ABB01001A1D
:10007000BB01001ABB01001ABB01001ABB01001A28
:10008000BB01001ABB01001ABB01001ABB01001A18
:10009000BB01001ABB01001ABB01001ABB01001A08
:1000A000BB01001ABB01001ABB01001ABB01001AF8
:1000B000BB01001ABB01001ABB01001ABB01001AE8
:1000C000BB01001ABB01001ABB01001ABB01001AD8
:1000D000BB01001ABB01001ABB01001ABB01001AC8
:1000E000BB01001ABB01001ABB01001ABB01001AB8
:1000F00000000000BB01001ABB01001ABB01001A7E
:1001000000000000BB01001ABB01001ABB01001A6D
:10011000BB01001AB820001A0000001048000000BF
:10012000B820001A0000081000000000B820001AD3
:100130000000002000000000B820001A008000200D
:1001400000000000B820001A00C0002000000000DD
:10015000480000107C0000000000081000000000B3
:1001600000000020000000000080002000000000CF
:1001700000C0002000000000FEE7FEE7FEE7FEE70B
:10018000FEE7FEE7FEE7FEE7FEE7002393420AD222
:1001900010B450F8044B41F8044B04339342F8D3A5
:1001A0005DF8044B70477047002303E0002240F8DD
:1001B000042B04338B42F9D37047FEE7FFFFFFFFA8
:1001C000FFFFFFFFFFFFFFFFFFFFFFFFFFFFFFFF3F
:1001D000FFFFFFFFFFFFFFFFFFFFFFFFFFFFFFFF2F
:1001E000FFFFFFFFFFFFFFFFFFFFFFFFFFFFFFFF1F
:1001F000FFFFFFFFFFFFFFFFFFFFFFFFFFFFFFFF0F
:10020000FFFFFFFFFFFFFFFFFFFFFFFFFFFFFFFFFE
:10021000FFFFFFFFFFFFFFFFFFFFFFFFFFFFFFFFEE
:10022000FFFFFFFFFFFFFFFFFFFFFFFFFFFFFFFFDE
:10023000FFFFFFFFFFFFFFFFFFFFFFFFFFFFFFFFCE
:10024000FFFFFFFFFFFFFFFFFFFFFFFFFFFFFFFFBE
:10025000FFFFFFFFFFFFFFFFFFFFFFFFFFFFFFFFAE
:10026000FFFFFFFFFFFFFFFFFFFFFFFFFFFFFFFF9E
:10027000FFFFFFFFFFFFFFFFFFFFFFFFFFFFFFFF8E
:10028000FFFFFFFFFFFFFFFFFFFFFFFFFFFFFFFF7E
:10029000FFFFFFFFFFFFFFFFFFFFFFFFFFFFFFFF6E
:1002A000FFFFFFFFFFFFFFFFFFFFFFFFFFFFFFFF5E
:1002B000FFFFFFFFFFFFFFFFFFFFFFFFFFFFFFFF4E
:1002C000FFFFFFFFFFFFFFFFFFFFFFFFFFFFFFFF3E
:1002D000FFFFFFFFFFFFFFFFFFFFFFFFFFFFFFFF2E
:1002E000FFFFFFFFFFFFFFFFFFFFFFFFFFFFFFFF1E
:1002F000FFFFFFFFFFFFFFFFFFFFFFFFFFFFFFFF0E
:04030000BD0B001A17
:10030400002303724372037443748374C3740375C8
:100314004375037743778377704701230374C36876
:10032400836170470223037000234360704710B554
:100334000446FFF7F2FF032323700023636010BD1C
:100344000423037000234360704700230370436059
:1003540070470023037043607047002303704360B9
:1003640070470023437001234360704700234370A8
:1003740001234360704708B5FFF7D4FF08BD08B5F3
:10038400FFF7F9FF08BD0020704738B50D4631B1BD
:100394000446FFF7F8FF10B9237A13B91D4628461F
:1003A40038BD2046FFF7D5FF2046FFF7BBFFF6E731
:1003B40038B50D4641B10446FFF7E5FF20B9637A2D
:1003C40023B9237A4BB91D46284638BD2046FFF78A
:1003D400C4FF2046FFF7ABFFF6E72046FFF7BDFF5B
:1003E4002046FFF79FFFEFE710B5044600220521E2
:1003F40000F094F900220121204600F08FF9012237
:100404000021204600F08AF910BD10B50446FFF71C
:10041400EBFF052363700123636010BD08B5FFF78C
:10042400F4FF08BD08B5FFF7F9FF08BD10B5044691
:100434000022052100F072F900221146204600F046
:100444006DF901221146204600F068F910BD10B57F
:100454000446FFF7EBFF082363700123636010BDBC
:1004640008B500F11C0100F06FF908BD08B50022C1
:1004740002704260FFF7F4FF08BD38B50D4631B194
:100484000446FFF780FF10B9237F13B91D462846A1
:1004940038BD2046FFF7EAFF2046FFF751FFF6E795
:1004A40008B500F11D0100F04FF908BD08B50022A0
:1004B400427001224260FFF7F3FF08BD08B500F166
:1004C4001E0100F041F908BD08B500224270012266
:1004D4004260FFF7F3FF08BD38B50D4619B1044675
:1004E400837F13B91D46284638BDFFF7EDFF20462C
:1004F400FFF7ADFFF7E708B50023642200F11C0104
:1005040000F014F908BD10B50446FFF7F4FF012309
:1005140023700023636010BD38B50D4631B1044625
:10052400FFF731FF10B9637A13B91D46284638BD69
:100534002046FFF70AFF2046FFF7E5FFF6E710B570
:10054400044600234FF4FA5200F11E0100F0EEF8C5
:1005540001220521204600F0E1F810BD10B5044643
:10056400FFF7EDFF072363700123636010BD38B507
:100574000D4671B10446037C53B18369022B01D04B
:10058400002506E0FFF7EDFE2046FFF7E7FF00E059
:100594001D46284638BD38B50D4641B10446037C96
:1005A40013B18369042B04D0637F43B91D462846E5
:1005B40038BDFFF77BFF2046FFF7D0FFF7E7204663
:1005C400FFF774FF2046FFF720FFF0E710B504465D
:1005D40000234FF4FA5200F11D0100F0A7F80122A4
:1005E4000521204600F09AF810BD10B50446FFF727
:1005F400EDFF062363700123636010BD38B50D461B
:1006040071B10446037C53B18369012B01D00025E9
:1006140006E0FFF7ABFE2046FFF7E7FF00E01D46CC
:10062400284638BD38B50446002302E00022E254CF
:100634000133012BFADD002565602046FFF760FEDB
:10064400A56138BD10B50446FFF799FE2046FFF7B3
:10065400E9FE10BD10B504460023436006E0012105
:100664002046FFF70AFF6368013363606368012B68
:1006740039D8E35C013B072BF5D801A252F823F0EB
:100684006306001AA506001AAF06001AB906001A76
:10069400C306001ACD06001AD706001AE106001A8E
:1006A40001212046FFF738FFDDE701212046FFF74F
:1006B4006CFED8E701212046FFF77AFED3E701213B
:1006C4002046FFF754FFCEE701212046FFF763FFE2
:1006D400C9E701212046FFF7FFFEC4E701212046B8
:1006E400FFF78CFFBFE72046FFF70AFE10BD00BFEF
:1006F4001C30884204DC0330884201D901230B708A
:100704007047012303727047C1600123437270472D
:10071400014B01221A7070474800001008B501F11E
:100724002800114640B201F0F1F808BD00B583B0CD
:10073400009313460A460321024800F08FF803B0E1
:100744005DF804FB6C00001008B50A46032102485A
:1007540000F0A4F808BD00BF6C00001038B50024F8
:10076400254600E00134032C0BD804F1240040B2E8
:1007740001F001F90028F5D10123A3401D43EDB296
:10078400F0E7284638BD000070B501F0A3F9012058
:10079400002101F041F90021204801F021F9032151
:1007A4001F4800F043F81F4C2046FFF73BFF20464C
:1007B400FFF748FF20E01A4D2601A9591948FFF711
:1007C40097FFAA590321284600F09FF80134022C10
:1007D40008D813482301C258032100F081F80028E7
:1007E400F4D0E8E7FFF7BAFF014690B10D48FFF7F0
:1007F4008BFF0C48FFF72EFF30BF0B4B1B78002BF1
:10080400FAD00024084B1C700321054800F092F82C
:10081400DDE70448FFF775FFEBE700BF1507001A93
:100824006C0000104C000010480000104FF0000C49
:100834008C4512D200B54FEA0C1E00EB0C120023BB
:1008440040F80E30536093601373537393730CF139
:10085400010C8C45EFD35DF804FB70474FF0000C9E
:100864008C4519D230B54FEA0C1E00EB0C1550F82C
:100874000E402CB10CF1010C8C45F4D300200AE09D
:100884006B60AB602A609DF80C302B7301236B7393
:100894000023AB73104630BD0020704700238B4209
:1008A4001CD210B54FEA031C00EB031E50F80C4099
:1008B400944204D001338B42F4D300200DE0002392
:1008C400CEF80030CEF80430CEF808308EF80C3074
:1008D4008EF80D308EF80E30104610BD0020704793
:1008E40010B58646002300E001338B420BD24FEA59
:1008F400031C0EEB03145EF80C009042F4D1A07BB1
:100904000028F1D000E0002010BD00238B4210D25B
:1009140010B54FEA031C00EB031E50F80C40944240
:1009240003D001338B42F4D302E000238EF80E305F
:1009340010BD704700238B421DD210B406E0002482
:1009440054730124947301338B4211D200EB0312CC
:10095400547B002CF7D094680CB1013C94609468EB
:10096400002CF0D1147B002CE9D054689460E8E7A3
:100974005DF8044B704770477047000010B572B6BD
:10098400194B1A4AC3F80021194AC3F80421002359
:1009940005E0184A4FF0FF3142F823100133072BCA
:1009A400F7D962B6144B07E003F10C049A6859684E
:1009B4001868FFF7E8FB2346104A9342F4D306E095
:1009C4001C46596854F8080BFFF7ECFB23460C4A05
:1009D4009342F5D300F07EFE01F00EFAFFF7CCFF50
:1009E400FFF7D2FE30BFFDE7003005400010DF10F6
:1009F400FFF7DF0180E200E01401001A5001001A41
:100A04007801001A704770470022052A1BD810B5D8
:100A14000D4B13F812E003EB420393F801C00B4BA8
:100A24000EF5006453F82410012000FA0CF0014381
:100A340043F8241003EB4E13002103F80C10013289
:100A4400052AE5D910BD7047601E001A00400F400A
:100A54000023032B19D810B40C4911F8132001EB0F
:100A6400430191F801C00A4C02F5006254F82210C7
:100A7400012000FA0CF021EA000144F822100133AD
:100A8400032BE9D95DF8044B70477047581E001AD0
:100A940000400F400023082B19D810B40C4911F85A
:100AA400132001EB430191F801C00A4C02F50062E6
:100AB40054F82210012000FA0CF021EA000144F855
:100AC40022100133082BE9D95DF8044B70477047B5
:100AD4006C1E001A00400F4010B582B0084C6946E5
:100AE400204600F0E3F8074A6946204600F0FEF885
:100AF40000226946204600F012F902B010BD00BF82
:100B040000300E40801A060010B50B4C204600F051
:100B14006BFC636823F004036360236823F0FF0322
:100B240043F0070323600549204600F03CFC63685A
:100B340043F00203636010BD00500C40A086010026
:100B440008B5002000F0DEFB044B40F60802C3F8B1
:100B5400842C0349002000F0E9FB08BD0060084034
:100B640040420F0010B5074C204600F01BFD4FF427
:100B7400E131204600F040FD0323E3600123E365F7
:100B840010BD00BF00100C4008B5FFF7EBFF09488B
:100B940000F0A6FBFFF77EFFFFF79EFFFFF7B4FF11
:100BA400FFF7CEFFFFF730FFFFF752FF00F0BEF86C
:100BB40008BD00BF00400F4008B5FFF7D3FF08BDD4
:100BC40000230CE0074A02EB830112F823C04A78A1
:100BD400488802EB4C12044941F8220001331C2BD3
:100BE400F0D97047881E001A0060084010B5174AF3
:100BF400D2F8203123F4704343F41043C2F8203177
:100C0400D2F8243123F4704343F41043C2F824315E
:100C140001220F49062000F003FC00244CB10B4BC9
:100C24005A6822F00C025A605A6842F003025A6071
:100C340010BD084800EB840101238A78497810F834
:100C4400240000F0A7FA0134E8E700BF00300440B4
:100C540000CB280C841E001A08B5FFF7B1FFFFF77C
:100C6400C5FF08BD034B984201D003207047042000
:100C7400704700BF00400E4070B50D4614461E4636
:100C8400FFF7F0FF00F006FB55B106FB04F404EB9C
:100C940040006400B0FBF4F0C0B20138C0B270BDD3
:100CA40004EB840304EB4304F1E7000038B5054684
:100CB4000C46FFF7D7FF01231A46194600F0B2FA93
:100CC4000021E960084A2260217161710B232846E2
:100CD400FFF7D2FF000240F4001023795B0403F411
:100CE400602303432B6038BD801A060070B50546A7
:100CF4000E46046824F46F2424F470640A600B79AB
:100D0400C3F10B03DBB24979FFF7B6FF44EA0024D1
:100D140033795B0403F4602323432B6070BD08B56F
:100D24000A710A68FFF7E2FF08BD000008B56920F0
:100D340000F0B0FA014B186008BD00BF9C00001021
:100D440070B586460B6813F0800F02D023F0400381
:100D54000B60754601243CE04B6902FB03F3B3FBD3
:100D6400F4F31EE01846BEEB000628D4B54207D9BA
:100D74008C600CF10105CD600A618861CB61354658
:100D84000132B2F5807F1CDC0E6816F0400FE3D010
:100D94000CF1010302FA03F3486900FB03F3B3FB0C
:100DA400F4F30F488342EBD90E48834209D816F076
:100DB400800FD7D10CF1010023FA00F0D3E776427B
:100DC400D4E70CF1010CBCF1030F01DC0122D8E7DC
:100DD4000134042C02DC4FF0000CF4E770BD00BFBA
:100DE400FF5E4C0900D01213F0B59DB005460C46C9
:100DF4006022002101A801F023F880230193636994
:100E0400069323798DF8083001A92846FFF798FF47
:100E1400079BAB422AD0EB1A31D41E461993119B7F
:100E240023F0400311936369169323798DF84830B6
:100E340011A92846FFF784FF179BAB4221D0EB1A78
:100E440027D41F461B932B4B9D4224D90F9BED1A8D
:100E540034D41A95AE423BDCBE4231DC01AD0FCD39
:100E64000FC495E80F0084E80F0006E001AD0FCD34
:100E74000FC495E80F0084E80F001DB0F0BD5B427D
:100E8400CBE711AD0FCD0FC495E80F0084E80F0038
:100E9400F3E75B42D5E74023099363690E9309A9FD
:100EA4002846FFF74DFF0F9BAB42CFD109AD0FCDC5
:100EB4000FC495E80F0084E80F00DEE76D42C8E731
:100EC40011AD0FCD0FC495E80F0084E80F00D4E7EF
:100ED400AF4207DB09AD0FCD0FC495E80F0084E8DE
:100EE4000F00CAE711AD0FCD0FC495E80F0084E8D9
:100EF4000F00C2E780778E06844600231C201C283E
:100F040020D110B402E001331C2818D103EB4301B3
:100F14000D4A02EB41021179814210D003EB4302E6
:100F2400094C34F812206245EDD803EB4304064A19
:100F340002EB440252886245E5D30846E4E75DF8D3
:100F4400044B7047704700BF041F001A82B04FF46F
:100F54007A7301930D4A936923F0020192698A42DC
:100F640001D00A4A916123F00303094A1168094A2E
:100F7400914201D943F00403044A9361019B5A1E30
:100F84000192002BFAD102B0704700BF0000054067
:100F9400801E001AFF2C31011230054B53F820003B
:100FA40010F0010F02D1C0F30460704711207047A4
:100FB4000000054000F11202034B53F82220034BBA
:100FC400185C00EA9200704700000540FC1E001AFD
:100FD40008B510280AD8DFE800F0440B0D182109E1
:100FE40024272A2D09093034383C4000002008BD4C
:100FF4001E48FCE71E4BD3F82C3103F00703042BE7
:1010040001D01C48F3E70020F1E7194BD3F82C3149
:1010140003F00703042B27D01648E8E7164B18689B
:10102400E5E7164B1868E2E7154B1868DFE7144B41
:101034005868DCE700F068F8D9E7002100F098F878
:10104400D5E7012100F094F8D1E7022100F090F8EF
:10105400CDE7032100F08CF8C9E7042100F088F8FB
:10106400C5E74FF40040C2E70648C0E7001BB700DD
:101074000030044040787D01541E001A801E001A7E
:10108400A000001080F0FA0238B505460C46087935
:10109400FFF79EFF6061194B2B44194A934221D8F4
:1010A40018B3802323600023A360E360B5FBF0F34F
:1010B4002361144A954203D900FB03F3AB4207D0E2
:1010C40021462846FFF790FEA3688BB1013BA3603D
:1010D400236983B1E2680AB1013AE260013B23610A
:1010E400002038BD4FF0FF30FBE74FF0FF30F8E74A
:1010F4004FF0FF30F5E74FF0FF30F2E7103A6BFFA7
:101104001005940BFF5E4C0930B583B0164D6C6C22
:10111400C4F30360FFF75CFF8446144B0193286C0F
:1011240010F001001DD0C4F30742C4F30133C4F32B
:101134000121C4F38010013201330831694411F8EC
:10114400041C14F0800F08D138B94900B2FBF1F245
:10115400BCFBF3F002FB00F003E0BCFBF3F302FB87
:1011640003F003B030BD00BF0000054001020408D5
:1011740038B50C460846FFF70FFF05462046FFF733
:1011840019FF04462846FFF723FF0134B0FBF4F0AF
:1011940038BD000030B400F1160C4FEA8C0C0CF191
:1011A400804C0CF5A02CDCF804401B2813D8112922
:1011B4001AD00E4D25400AB145F400650BB145F037
:1011C400010545EA01651630800000F1804000F514
:1011D400A020456008E044F001041630800000F1CE
:1011E400804000F5A020446030BC7047FEF7FFE06B
:1011F4001B280DD800F116039B0003F1804303F56F
:10120400A023586810F0010F04D1C0F304607047A4
:10121400112070471120704708B5FFF7E9FFFFF769
:10122400D7FE08BD71B901210AB141F00401022BB6
:101234000AD0B0F5A17F0AD3A0F59170064B43F80C
:10124400301070470321EFE741F02001F1E720302F
:10125400024B43F830107047002005400010054051
:10126400B0F5A17F09D3094AA0F5917052F8303046
:1012740043F0010342F830307047054A203052F8F9
:10128400303043F0010342F830307047002005400D
:101294000010054010B50346B0F5A17F08D3A0F5B2
:1012A40091720D4951F8324014F0010006D110BD7D
:1012B40000F12002094951F83240F5E71846FFF7DA
:1012C4001BFEFFF7A9FF14F0E00F03D10123B0FBCD
:1012D400F3F0ECE70223FAE7002005400010054094
:1012E40070470000012909D1C0EBC000044B03EB97
:1012F40080031A69137DDBB2042BFBD0704700BF57
:101304000000001070B50446074EC500C0EBC003D2
:1013140006EB83039888FFF7A3FF2D1B56F82530AF
:101324006C229A6170BD00BF000000102DE9F041ED
:10133400044688460B4DC600C0EBC0039F0005EB76
:1013440083039888FFF7A6FFB0FBF8F1EB594A082E
:101354001A61361B55F826301A69891A5961BDE895
:10136400F08100BF00000010034B984201D083209D
:101374007047A520704700BF00500C40044B9842B2
:1013840002D040F2022070474FF4F170704700BF62
:1013940000500C40036823F47F43090289B21943C7
:1013A40001600261704738B505460C46FFF7E6FF59
:1013B400FFF770FF02224FF0FF33002100E0614687
:1013C400A3420DD901F1010C01FB0223B0FBF3F39D
:1013D4009C42F5D2BCF1FF0FF1D902320021EFE7B4
:1013E4002846FFF7D7FF38BD10B50446FFF7BCFF0A
:1013F400FFF736FF2046FFF7C1FFFFF731FF6368B1
:1014040023F004036360236823F0FF0343F007031E
:10141400236002492046FFF7C6FF10BDA0860100E5
:1014240070B58AB005460E4614464CF25033099303
:10143400062818D00023012229460420FFF7AAFE1B
:101444004A4A536C43F0010353648DF8085001A9D0
:101454003046FFF719FE464B9E4216D9019B13F006
:10146400400F03D0FEE7FFF771FDE3E713F0800FB1
:1014740005D023F0800301930026012507E0049B97
:10148400013304930126002501E0002635469DF82A
:101494000820019B43EA0263059A43EA0243039A44
:1014A40043EA0233049A43EA022343F400632F4AD3
:1014B40053642E4B1B6C13F0010FFAD0002301224E
:1014C40009210420FFF766FE05B34CF2503309935B
:1014D400099B5A1E0992002BFAD1019B43F0800309
:1014E40001939DF8082043EA0263059A43EA024304
:1014F400039A43EA0233049A43EA022343F400635F
:101504001A4A5364002C2ED10AB070BD002EF9D0B3
:101514004CF250330993099B5A1E0992002BFAD1BD
:10152400049A013A04929DF80810019B43EA01636E
:10153400059943EA0143039943EA013343EA022349
:1015440043F40063094A5364DCE70A4800EB84016E
:10155400CB788A78497810F82400FFF71BFE013411
:10156400112CF2D9D0E70024FAE700BF00000540AF
:1015740080778E06701F001A094B98420BD003F532
:101584008053984209D0A3F58023984201D00020CB
:10159400704701207047022070470320704700BF46
:1015A40000100C4030B583B00446FFF7E5FF01237B
:1015B4001A4619460E4D35F81000FFF733FE07237F
:1015C400A3600023E3656360E3602362E36463650F
:1015D4002365084B9C4206D00323E3601023A362D7
:1015E400019B03B030BD00232361A3690193F3E79A
:1015F400C01F001A002008402DE9F04F83B001906D
:101604008846FFF7B9FF324B33F81000FFF742FE6C
:1016140006464FF0FF3701244FF0000BA246D9468F
:101624002AE042424B1C17E00AB31746AB46A246D7
:1016340099460135AC421ED931093007A4FB000C90
:10164400621908FB02F2002304FB01C100F07CFADA
:1016540002460B460028E4DB9742EAD3002BE8D08D
:10166400190CE6D1022BDFD8002DDDD0E1E71746B7
:10167400AB46A246994601341FB10F2C01D8002570
:10168400D8E7B9F1000F1ED00199CB6843F080036D
:10169400CB605FFA89F30B60C9F307234B60CB6817
:1016A40023F08003CB604FEA0A13DBB20BF00F0286
:1016B40013438B6233090AFB03F30AEB0B0209FBA6
:1016C40002F2B3FBF2F9484603B0BDE8F08F00BF65
:1016D400B81F001A08B50B4A0B4B9A6003F5007348
:1016E4001B6C03F47F63202B04D0FFF7B5FAFFF7DC
:1016F4004BFA08BD044AD2F8883043F47003C2F8A8
:101704008830F2E70000001A00ED00E0044B186096
:10171400044A136843F0010313600120704700BFBB
:1017240038000010001000E010B40C4C00EB8000F6
:1017340004EB000C205608709CF9011011709CF900
:1017440002201A709CF90320019B1A709CF9042052
:10175400029B1A705DF8044B704700BFC81F001A43
:1017640010F1020F00F0C68030B585B00C46B0F120
:10177400FF3F00F0C18000238DF80F308DF80E304C
:101784008DF80D308DF80C308DF80B300DF10B0306
:10179400019303AB00930DF10D030DF10E020DF156
:1017A4000F01FFF7C1FF052C00F2A980DFE804F068
:1017B4000880264462035348FFF792FD01209CE011
:1017C4009DF80F109DF80E309DF80D2042F0D002C8
:1017D40003EB41134C4941F823209DF80C309DF94B
:1017E4000B10012000FA01F1464C03F5006354F894
:1017F400232022EA010244F823207EE09DF80F1002
:101804009DF80E309DF80D2042F0C00203EB411309
:101814003D4941F823209DF80C309DF90B1001201F
:1018240000FA01F1374C03F5006354F8232022EA4F
:10183400010244F8232060E09DF80F109DF80E305B
:101844009DF80D2042F0D80203EB41132E4941F8D4
:1018540023209DF80C309DF90B10012000FA01F1B2
:10186400284C03F5006354F8232022EA010244F8CB
:10187400232042E09DF80F109DF80E309DF80D20B6
:1018840042F0C80203EB41131F4941F823209DF89D
:101894000C309DF90B10012000FA01F1194C03F5ED
:1018A400006354F8232022EA010244F8232024E0B0
:1018B4009DF80F109DF80E309DF80D2042F0D002D7
:1018C40003EB4113104941F823209DF80C009DF9C6
:1018D4000B1001228A400B4B00F5006C53F82C507E
:1018E4002A4343F82C20C9B203EB401300225A5474
:1018F400204602E000207047002005B030BD0020E3
:10190400FBE700BF00400F400060084010F1020FE9
:101914002DD010B584B00C46B0F1FF3F29D0002380
:101924008DF80F308DF80E308DF80D308DF80C30A9
:101934008DF80B300DF10B03019303AB00930DF104
:101944000D030DF10E020DF10F01FFF7EDFE9DF8F1
:101954000C309DF80B20211E18BF01215B0103F1FF
:10196400402303F570239954012004B010BD0020D6
:1019740070470020F9E710F1020F2CD0B0F1FF3FBF
:101984002BD000B585B000238DF80F308DF80E30C4
:101994008DF80D308DF80C308DF80B300DF10B03F4
:1019A400019303AB00930DF10D030DF10E020DF144
:1019B4000F01FFF7B9FE9DF90C309DF80B205B0178
:1019C40003F1402303F57023985C003818BF01200D
:1019D40005B05DF804FB012070470020704700004B
:1019E40030B1054A1060012021B1044B19607047E1
:1019F4000020F9E700207047B8000010A80000108C
:101A040020B14FF0E02307221A6170474FF0E02322
:101A140000221A617047000010B550EA010328D073
:101A2400421E41F1FF33322A73F1000326D2144BD4
:101A340018605960134B1C68A4FB000C4FF47A72B5
:101A4400002304FB01C100F07FF80138B0F1807F6E
:101A54000AD24FF0E02358610B4AE02182F82310A8
:101A640000229A6107221A610120FFF7C9FF0120B1
:101A740010BD0020FFF7C4FF0020F9E70020F7E7BE
:101A8400400000109C00001000ED00E008B5074A7B
:101A940013685168013341F1000113605160044B34
:101AA4001B6813B1034A1068984708BDB0000010C2
:101AB400B8000010A800001008B5044B1B681B6890
:101AC400DB68034A1068984708BD00BFC0000010D7
:101AD400BC00001008B5FFF729F91A4B1868FFF786
:101AE40015FE01200021FFF797FF05210020FFF7D5
:101AF40037FE00212420FFF733FE00212520FFF7C5
:101B04002FFE00212620FFF72BFE00212720FFF7C0
:101B140027FE01212820FFF723FE01212920FFF7BA
:101B24001FFE01212A20FFF71BFE01212B20FFF7B6
:101B340017FE01212C20FFF713FE01212D20FFF7B2
:101B44000FFE08BD9C00001053B94AB9002908BF14
:101B540000281CBF4FF0FF314FF0FF3000F04AB9AE
:101B6400ADF1080C6DE904CE00F006F8DDF804E0F0
:101B7400DDE9022304B070472DE9F0478C468E4618
:101B8400089E154604461946002B40F0AF80724566
:101B9400B2FA82F743D94FB1C7F120030EFA07FC1A
:101BA40020FA03F3BD4043EA0C0CBC404FEA154E47
:101BB400A8B2BCFBFEF8230C0EFB18CC08FB00F902
:101BC40043EA0C43994528D9EB1808F1FF3204D2B3
:101BD400994502D9A8F102022B44A3EB0903B3FBF4
:101BE400FEFCA4B20EFB1C330CFB00F044EA0344DD
:101BF400A04279D92C190CF1FF3304D2A04202D9A6
:101C0400ACF102032C44241A43EA02401EB1FC4006
:101C1400002334607360BDE8F0874246DDE702B913
:101C2400FFDEE7B9AEEB020301214FEA154EA8B27D
:101C3400B3FBFEFC220C0EFB1C330CFB00F842EA47
:101C4400034398454ED9EB180CF1FF3204D2984562
:101C540002D9ACF102022B44A3EB0803BFE7C7F19E
:101C640020012EFA01F3BD400EFA07FE20FA01F11D
:101C740041EA0E014FEA154EAAB2B3FBFEFC0EFB7D
:101C84001C300B0C0CFB02F843EA0043984504FAA1
:101C940007F423D9EB180CF1FF3004D2984502D98C
:101CA400ACF102002B44A3EB0803B3FBFEFC0CFBDA
:101CB40002F80EFB1C328BB243EA024398450FD95B
:101CC400EB180CF1FF3104D2984502D9ACF10201B2
:101CD4002B44A3EB080341EA0041A6E76046E2E790
:101CE4006146F6E76246B7E763468CE7734505D974
:101CF4000EB1C6E9000E002108468CE7B3FA83F75B
:101D040087B9734501D382420AD8841A6EEB030360
:101D140001209C46002E6AD0C6E9004C00217AE7D7
:101D24003846F7E7C7F1200CBB4022FA0CF41C43F9
:101D340020FA0CF12EFA0CF30EFA07FE41EA0E011A
:101D44004FEA144900FA07F5B3FBF9F81FFA84FEC9
:101D540009FB18300B0C08FB0EFA43EA00439A45C2
:101D640002FA07F23FD9E31808F1FF3004D29A458A
:101D740002D9A8F102002344A3EB0A0389B2B3FBFE
:101D8400F9F809FB183308FB0EFE41EA03418E45BE
:101D94002BD9611808F1FF3304D28E4502D9A8F17A
:101DA4000203214443EA0040A0FB0298A1EB0E0188
:101DB4004145CE46434602D306D14D4504D2B9EB44
:101DC400020E68EB040301388EB1B5EB0E0261EB31
:101DD400030101FA0CFC22FA07F34CEA0303F9406D
:101DE400C6E900319AE74046C6E74346DAE731469A
:101DF40011E70000704700BF70B50D4D0D4C641B1A
:101E0400A4100026A64209D10B4D0C4CFEF7FBFD95
:101E1400641BA4100026A64205D170BD55F8043BEE
:101E240098470136EEE755F8043B98470136F2E748
:101E34000003001A0003001A0003001A0403001A26
:101E440002440346934200D1704703F8011BF9E7AB
:101E54000000000000040008000901090500050154
:101E64000502000E010B010C030003030304050F1C
:101E7400051003050306030702080000001BB70052
:101E8400010F010102004400020144000202440067
:101E9400020A4000020B4000020C40000100500006
:101EA40001015000010250000106500006015000DB
:101EB40006045000060550000607540006085400A6
:101EC40006095000060A5000060B5000060C50008C
:101ED4000F04F0000103D5000104D500070116002A
:101EE4000702560002035200020452000905520080
:101EF4000906570006025700030F0F0FFF000000EA
:101F0400000005000A0020002400090040004000F1
:101F140005006000A6000400C000C3000200E00049
:101F2400E00001000001000103002001200106007F
:101F3400400140010C0042014201190062016201AA
:101F44001300820182011200A201A2011100C20148
:101F5400C2011000E201E2010F00020202020E00BF
:101F6400220222020D00230223021C0000010100B0
:101F7400090901000A090100010701010209010020
:101F8400060901000C0901010D0901000E090100F7
:101F94000F090100100901001109010012090100D3
:101FA4001309010014110100191101001A11010093
:101FB4001B110100C201A2018201620181008200A1
:101FC400A100A2000401000201070500030D0105A0
:101FD40000010804020002020403000203040000DA
:101FE4000200070400030C030204050903010405AD
:101FF4000802030405030204040504060C00020895
:10200400060B0003070609000305060704050F066F
:10201400040003030404000204040500020504068A
:10202400000206040804050C040A04050E0103005A
:10203400000A011400000F011200000D011100003C
:102044000C0110000003070700030F00010000014A
:102054000000000000060A00030606080405100636
:10206400050003040601000300040904050D01042E
:1020740000000B010F000002010000000401010038
:10208400000801020000090106000109020004051C
:102094000002010405010202040502020A00000E06
:0C20A400020B00010B020C00010C0000FC
:0820B000CCFAFF7F01000000E3
:1020B80000100A4022000000E912001A0000000087
:1020C80000000000000000000000000000000E40BA
:1020D80001000000E912001A0000000000000000E2
:1020E800000000000000000000CB280CFFFFFFFFED
:0820F8000100000000000000DF
:040000051A00098153
:00000001FF
